{
  "address": "0xD794B60E09b2A54005fAEc703e11C96E213Cd3dE",
  "abi": [
    {
      "inputs": [],
      "stateMutability": "nonpayable",
      "type": "constructor"
    },
    {
      "anonymous": false,
      "inputs": [
        {
          "indexed": true,
          "internalType": "address",
          "name": "owner",
          "type": "address"
        }
      ],
      "name": "AddedOwner",
      "type": "event"
    },
    {
      "anonymous": false,
      "inputs": [
        {
          "indexed": true,
          "internalType": "bytes32",
          "name": "approvedHash",
          "type": "bytes32"
        },
        {
          "indexed": true,
          "internalType": "address",
          "name": "owner",
          "type": "address"
        }
      ],
      "name": "ApproveHash",
      "type": "event"
    },
    {
      "anonymous": false,
      "inputs": [
        {
          "indexed": true,
          "internalType": "address",
          "name": "handler",
          "type": "address"
        }
      ],
      "name": "ChangedFallbackHandler",
      "type": "event"
    },
    {
      "anonymous": false,
      "inputs": [
        {
          "indexed": true,
          "internalType": "address",
          "name": "guard",
          "type": "address"
        }
      ],
      "name": "ChangedGuard",
      "type": "event"
    },
    {
      "anonymous": false,
      "inputs": [
        {
          "indexed": false,
          "internalType": "uint256",
          "name": "threshold",
          "type": "uint256"
        }
      ],
      "name": "ChangedThreshold",
      "type": "event"
    },
    {
      "anonymous": false,
      "inputs": [
        {
          "indexed": true,
          "internalType": "address",
          "name": "module",
          "type": "address"
        }
      ],
      "name": "DisabledModule",
      "type": "event"
    },
    {
      "anonymous": false,
      "inputs": [
        {
          "indexed": true,
          "internalType": "address",
          "name": "module",
          "type": "address"
        }
      ],
      "name": "EnabledModule",
      "type": "event"
    },
    {
      "anonymous": false,
      "inputs": [
        {
          "indexed": true,
          "internalType": "bytes32",
          "name": "txHash",
          "type": "bytes32"
        },
        {
          "indexed": false,
          "internalType": "uint256",
          "name": "payment",
          "type": "uint256"
        }
      ],
      "name": "ExecutionFailure",
      "type": "event"
    },
    {
      "anonymous": false,
      "inputs": [
        {
          "indexed": true,
          "internalType": "address",
          "name": "module",
          "type": "address"
        }
      ],
      "name": "ExecutionFromModuleFailure",
      "type": "event"
    },
    {
      "anonymous": false,
      "inputs": [
        {
          "indexed": true,
          "internalType": "address",
          "name": "module",
          "type": "address"
        }
      ],
      "name": "ExecutionFromModuleSuccess",
      "type": "event"
    },
    {
      "anonymous": false,
      "inputs": [
        {
          "indexed": true,
          "internalType": "bytes32",
          "name": "txHash",
          "type": "bytes32"
        },
        {
          "indexed": false,
          "internalType": "uint256",
          "name": "payment",
          "type": "uint256"
        }
      ],
      "name": "ExecutionSuccess",
      "type": "event"
    },
    {
      "anonymous": false,
      "inputs": [
        {
          "indexed": true,
          "internalType": "address",
          "name": "owner",
          "type": "address"
        }
      ],
      "name": "RemovedOwner",
      "type": "event"
    },
    {
      "anonymous": false,
      "inputs": [
        {
          "indexed": true,
          "internalType": "address",
          "name": "sender",
          "type": "address"
        },
        {
          "indexed": false,
          "internalType": "uint256",
          "name": "value",
          "type": "uint256"
        }
      ],
      "name": "SafeReceived",
      "type": "event"
    },
    {
      "anonymous": false,
      "inputs": [
        {
          "indexed": true,
          "internalType": "address",
          "name": "initiator",
          "type": "address"
        },
        {
          "indexed": false,
          "internalType": "address[]",
          "name": "owners",
          "type": "address[]"
        },
        {
          "indexed": false,
          "internalType": "uint256",
          "name": "threshold",
          "type": "uint256"
        },
        {
          "indexed": false,
          "internalType": "address",
          "name": "initializer",
          "type": "address"
        },
        {
          "indexed": false,
          "internalType": "address",
          "name": "fallbackHandler",
          "type": "address"
        }
      ],
      "name": "SafeSetup",
      "type": "event"
    },
    {
      "anonymous": false,
      "inputs": [
        {
          "indexed": true,
          "internalType": "bytes32",
          "name": "msgHash",
          "type": "bytes32"
        }
      ],
      "name": "SignMsg",
      "type": "event"
    },
    {
      "stateMutability": "nonpayable",
      "type": "fallback"
    },
    {
      "inputs": [],
      "name": "VERSION",
      "outputs": [
        {
          "internalType": "string",
          "name": "",
          "type": "string"
        }
      ],
      "stateMutability": "view",
      "type": "function"
    },
    {
      "inputs": [
        {
          "internalType": "address",
          "name": "owner",
          "type": "address"
        },
        {
          "internalType": "uint256",
          "name": "_threshold",
          "type": "uint256"
        }
      ],
      "name": "addOwnerWithThreshold",
      "outputs": [],
      "stateMutability": "nonpayable",
      "type": "function"
    },
    {
      "inputs": [
        {
          "internalType": "bytes32",
          "name": "hashToApprove",
          "type": "bytes32"
        }
      ],
      "name": "approveHash",
      "outputs": [],
      "stateMutability": "nonpayable",
      "type": "function"
    },
    {
      "inputs": [
        {
          "internalType": "address",
          "name": "",
          "type": "address"
        },
        {
          "internalType": "bytes32",
          "name": "",
          "type": "bytes32"
        }
      ],
      "name": "approvedHashes",
      "outputs": [
        {
          "internalType": "uint256",
          "name": "",
          "type": "uint256"
        }
      ],
      "stateMutability": "view",
      "type": "function"
    },
    {
      "inputs": [
        {
          "internalType": "uint256",
          "name": "_threshold",
          "type": "uint256"
        }
      ],
      "name": "changeThreshold",
      "outputs": [],
      "stateMutability": "nonpayable",
      "type": "function"
    },
    {
      "inputs": [
        {
          "internalType": "address",
          "name": "executor",
          "type": "address"
        },
        {
          "internalType": "bytes32",
          "name": "dataHash",
          "type": "bytes32"
        },
        {
          "internalType": "bytes",
          "name": "signatures",
          "type": "bytes"
        },
        {
          "internalType": "uint256",
          "name": "requiredSignatures",
          "type": "uint256"
        }
      ],
      "name": "checkNSignatures",
      "outputs": [],
      "stateMutability": "view",
      "type": "function"
    },
    {
      "inputs": [
        {
          "internalType": "bytes32",
          "name": "dataHash",
          "type": "bytes32"
        },
        {
          "internalType": "bytes",
          "name": "",
          "type": "bytes"
        },
        {
          "internalType": "bytes",
          "name": "signatures",
          "type": "bytes"
        }
      ],
      "name": "checkSignatures",
      "outputs": [],
      "stateMutability": "view",
      "type": "function"
    },
    {
      "inputs": [
        {
          "internalType": "bytes32",
          "name": "dataHash",
          "type": "bytes32"
        },
        {
          "internalType": "bytes",
          "name": "signatures",
          "type": "bytes"
        }
      ],
      "name": "checkSignatures",
      "outputs": [],
      "stateMutability": "view",
      "type": "function"
    },
    {
      "inputs": [
        {
          "internalType": "address",
          "name": "prevModule",
          "type": "address"
        },
        {
          "internalType": "address",
          "name": "module",
          "type": "address"
        }
      ],
      "name": "disableModule",
      "outputs": [],
      "stateMutability": "nonpayable",
      "type": "function"
    },
    {
      "inputs": [],
      "name": "domainSeparator",
      "outputs": [
        {
          "internalType": "bytes32",
          "name": "",
          "type": "bytes32"
        }
      ],
      "stateMutability": "view",
      "type": "function"
    },
    {
      "inputs": [
        {
          "internalType": "address",
          "name": "module",
          "type": "address"
        }
      ],
      "name": "enableModule",
      "outputs": [],
      "stateMutability": "nonpayable",
      "type": "function"
    },
    {
      "inputs": [
        {
          "internalType": "address",
          "name": "to",
          "type": "address"
        },
        {
          "internalType": "uint256",
          "name": "value",
          "type": "uint256"
        },
        {
          "internalType": "bytes",
          "name": "data",
          "type": "bytes"
        },
        {
          "internalType": "enum Enum.Operation",
          "name": "operation",
          "type": "uint8"
        },
        {
          "internalType": "uint256",
          "name": "safeTxGas",
          "type": "uint256"
        },
        {
          "internalType": "uint256",
          "name": "baseGas",
          "type": "uint256"
        },
        {
          "internalType": "uint256",
          "name": "gasPrice",
          "type": "uint256"
        },
        {
          "internalType": "address",
          "name": "gasToken",
          "type": "address"
        },
        {
          "internalType": "address payable",
          "name": "refundReceiver",
          "type": "address"
        },
        {
          "internalType": "bytes",
          "name": "signatures",
          "type": "bytes"
        }
      ],
      "name": "execTransaction",
      "outputs": [
        {
          "internalType": "bool",
          "name": "success",
          "type": "bool"
        }
      ],
      "stateMutability": "payable",
      "type": "function"
    },
    {
      "inputs": [
        {
          "internalType": "address",
          "name": "to",
          "type": "address"
        },
        {
          "internalType": "uint256",
          "name": "value",
          "type": "uint256"
        },
        {
          "internalType": "bytes",
          "name": "data",
          "type": "bytes"
        },
        {
          "internalType": "enum Enum.Operation",
          "name": "operation",
          "type": "uint8"
        }
      ],
      "name": "execTransactionFromModule",
      "outputs": [
        {
          "internalType": "bool",
          "name": "success",
          "type": "bool"
        }
      ],
      "stateMutability": "nonpayable",
      "type": "function"
    },
    {
      "inputs": [
        {
          "internalType": "address",
          "name": "to",
          "type": "address"
        },
        {
          "internalType": "uint256",
          "name": "value",
          "type": "uint256"
        },
        {
          "internalType": "bytes",
          "name": "data",
          "type": "bytes"
        },
        {
          "internalType": "enum Enum.Operation",
          "name": "operation",
          "type": "uint8"
        }
      ],
      "name": "execTransactionFromModuleReturnData",
      "outputs": [
        {
          "internalType": "bool",
          "name": "success",
          "type": "bool"
        },
        {
          "internalType": "bytes",
          "name": "returnData",
          "type": "bytes"
        }
      ],
      "stateMutability": "nonpayable",
      "type": "function"
    },
    {
      "inputs": [
        {
          "internalType": "address",
          "name": "start",
          "type": "address"
        },
        {
          "internalType": "uint256",
          "name": "pageSize",
          "type": "uint256"
        }
      ],
      "name": "getModulesPaginated",
      "outputs": [
        {
          "internalType": "address[]",
          "name": "array",
          "type": "address[]"
        },
        {
          "internalType": "address",
          "name": "next",
          "type": "address"
        }
      ],
      "stateMutability": "view",
      "type": "function"
    },
    {
      "inputs": [],
      "name": "getOwners",
      "outputs": [
        {
          "internalType": "address[]",
          "name": "",
          "type": "address[]"
        }
      ],
      "stateMutability": "view",
      "type": "function"
    },
    {
      "inputs": [
        {
          "internalType": "uint256",
          "name": "offset",
          "type": "uint256"
        },
        {
          "internalType": "uint256",
          "name": "length",
          "type": "uint256"
        }
      ],
      "name": "getStorageAt",
      "outputs": [
        {
          "internalType": "bytes",
          "name": "",
          "type": "bytes"
        }
      ],
      "stateMutability": "view",
      "type": "function"
    },
    {
      "inputs": [],
      "name": "getThreshold",
      "outputs": [
        {
          "internalType": "uint256",
          "name": "",
          "type": "uint256"
        }
      ],
      "stateMutability": "view",
      "type": "function"
    },
    {
      "inputs": [
        {
          "internalType": "address",
          "name": "to",
          "type": "address"
        },
        {
          "internalType": "uint256",
          "name": "value",
          "type": "uint256"
        },
        {
          "internalType": "bytes",
          "name": "data",
          "type": "bytes"
        },
        {
          "internalType": "enum Enum.Operation",
          "name": "operation",
          "type": "uint8"
        },
        {
          "internalType": "uint256",
          "name": "safeTxGas",
          "type": "uint256"
        },
        {
          "internalType": "uint256",
          "name": "baseGas",
          "type": "uint256"
        },
        {
          "internalType": "uint256",
          "name": "gasPrice",
          "type": "uint256"
        },
        {
          "internalType": "address",
          "name": "gasToken",
          "type": "address"
        },
        {
          "internalType": "address",
          "name": "refundReceiver",
          "type": "address"
        },
        {
          "internalType": "uint256",
          "name": "_nonce",
          "type": "uint256"
        }
      ],
      "name": "getTransactionHash",
      "outputs": [
        {
          "internalType": "bytes32",
          "name": "",
          "type": "bytes32"
        }
      ],
      "stateMutability": "view",
      "type": "function"
    },
    {
      "inputs": [
        {
          "internalType": "address",
          "name": "module",
          "type": "address"
        }
      ],
      "name": "isModuleEnabled",
      "outputs": [
        {
          "internalType": "bool",
          "name": "",
          "type": "bool"
        }
      ],
      "stateMutability": "view",
      "type": "function"
    },
    {
      "inputs": [
        {
          "internalType": "address",
          "name": "owner",
          "type": "address"
        }
      ],
      "name": "isOwner",
      "outputs": [
        {
          "internalType": "bool",
          "name": "",
          "type": "bool"
        }
      ],
      "stateMutability": "view",
      "type": "function"
    },
    {
      "inputs": [],
      "name": "nonce",
      "outputs": [
        {
          "internalType": "uint256",
          "name": "",
          "type": "uint256"
        }
      ],
      "stateMutability": "view",
      "type": "function"
    },
    {
      "inputs": [
        {
          "internalType": "address",
          "name": "prevOwner",
          "type": "address"
        },
        {
          "internalType": "address",
          "name": "owner",
          "type": "address"
        },
        {
          "internalType": "uint256",
          "name": "_threshold",
          "type": "uint256"
        }
      ],
      "name": "removeOwner",
      "outputs": [],
      "stateMutability": "nonpayable",
      "type": "function"
    },
    {
      "inputs": [
        {
          "internalType": "address",
          "name": "handler",
          "type": "address"
        }
      ],
      "name": "setFallbackHandler",
      "outputs": [],
      "stateMutability": "nonpayable",
      "type": "function"
    },
    {
      "inputs": [
        {
          "internalType": "address",
          "name": "guard",
          "type": "address"
        }
      ],
      "name": "setGuard",
      "outputs": [],
      "stateMutability": "nonpayable",
      "type": "function"
    },
    {
      "inputs": [
        {
          "internalType": "address[]",
          "name": "_owners",
          "type": "address[]"
        },
        {
          "internalType": "uint256",
          "name": "_threshold",
          "type": "uint256"
        },
        {
          "internalType": "address",
          "name": "to",
          "type": "address"
        },
        {
          "internalType": "bytes",
          "name": "data",
          "type": "bytes"
        },
        {
          "internalType": "address",
          "name": "fallbackHandler",
          "type": "address"
        },
        {
          "internalType": "address",
          "name": "paymentToken",
          "type": "address"
        },
        {
          "internalType": "uint256",
          "name": "payment",
          "type": "uint256"
        },
        {
          "internalType": "address payable",
          "name": "paymentReceiver",
          "type": "address"
        }
      ],
      "name": "setup",
      "outputs": [],
      "stateMutability": "nonpayable",
      "type": "function"
    },
    {
      "inputs": [
        {
          "internalType": "bytes32",
          "name": "",
          "type": "bytes32"
        }
      ],
      "name": "signedMessages",
      "outputs": [
        {
          "internalType": "uint256",
          "name": "",
          "type": "uint256"
        }
      ],
      "stateMutability": "view",
      "type": "function"
    },
    {
      "inputs": [
        {
          "internalType": "address",
          "name": "targetContract",
          "type": "address"
        },
        {
          "internalType": "bytes",
          "name": "calldataPayload",
          "type": "bytes"
        }
      ],
      "name": "simulateAndRevert",
      "outputs": [],
      "stateMutability": "nonpayable",
      "type": "function"
    },
    {
      "inputs": [
        {
          "internalType": "address",
          "name": "prevOwner",
          "type": "address"
        },
        {
          "internalType": "address",
          "name": "oldOwner",
          "type": "address"
        },
        {
          "internalType": "address",
          "name": "newOwner",
          "type": "address"
        }
      ],
      "name": "swapOwner",
      "outputs": [],
      "stateMutability": "nonpayable",
      "type": "function"
    },
    {
      "stateMutability": "payable",
      "type": "receive"
    }
  ],
  "transactionHash": "0xde4eed5c96bb5f67b0cf615cb025befef422f85f5c814e2a1abc0af053df0640",
  "args": [],
  "numDeployments": 1,
  "solcInputHash": "bf606bc4a6ea644bee9a9d15ecf9936d",
  "bytecode": "0x608060405234801561001057600080fd5b5060016004819055506151dc806100286000396000f3fe6080604052600436106101c65760003560e01c8063affed0e0116100f7578063e19a9dd911610095578063f08a032311610064578063f08a0323146113ec578063f698da251461143d578063f8dc5dd914611468578063ffa1ad74146114e35761021b565b8063e19a9dd91461120d578063e318b52b1461125e578063e75235b8146112ef578063ed516d511461131a5761021b565b8063cc2f8452116100d1578063cc2f845214610f5a578063d4d9bdcd14611027578063d8d11f7814611062578063e009cfde1461119c5761021b565b8063affed0e014610cd7578063b4faba0914610d02578063b63e800d14610dea5761021b565b80635ae6bd37116101645780636a7612021161013e5780636a761202146108d75780637d83297414610a93578063934f3a1114610b02578063a0e67e2b14610c6b5761021b565b80635ae6bd37146107fc578063610b59251461084b578063694e80c31461089c5761021b565b80632f54bf6e116101a05780632f54bf6e14610441578063468721a7146104a85780635229073f146105bd5780635624b25b1461073e5761021b565b80630d582f13146102835780631fcac7f3146102de5780632d9ad53d146103da5761021b565b3661021b573373ffffffffffffffffffffffffffffffffffffffff167f3d0ce9bfc3ed7d6862dbb28b2dea94561fe714a1b4d019aa8af39730d1ad7c3d346040518082815260200191505060405180910390a2005b34801561022757600080fd5b507f6c9a6c4a39284e37ed1cf53d337577d14212a4870fb976a4366c693b939918d5548061025457600080f35b60405136600082373360601b3682015260008060143601836000865af13d6000833e8061027f573d82fd5b3d82f35b34801561028f57600080fd5b506102dc600480360360408110156102a657600080fd5b81019080803573ffffffffffffffffffffffffffffffffffffffff16906020019092919080359060200190929190505050611573565b005b3480156102ea57600080fd5b506103d86004803603608081101561030157600080fd5b81019080803573ffffffffffffffffffffffffffffffffffffffff169060200190929190803590602001909291908035906020019064010000000081111561034857600080fd5b82018360208201111561035a57600080fd5b8035906020019184600183028401116401000000008311171561037c57600080fd5b91908080601f016020809104026020016040519081016040528093929190818152602001838380828437600081840152601f19601f820116905080830192505050505050509192919290803590602001909291905050506118cd565b005b3480156103e657600080fd5b50610429600480360360208110156103fd57600080fd5b81019080803573ffffffffffffffffffffffffffffffffffffffff169060200190929190505050611cf1565b60405180821515815260200191505060405180910390f35b34801561044d57600080fd5b506104906004803603602081101561046457600080fd5b81019080803573ffffffffffffffffffffffffffffffffffffffff169060200190929190505050611dc3565b60405180821515815260200191505060405180910390f35b3480156104b457600080fd5b506105a5600480360360808110156104cb57600080fd5b81019080803573ffffffffffffffffffffffffffffffffffffffff169060200190929190803590602001909291908035906020019064010000000081111561051257600080fd5b82018360208201111561052457600080fd5b8035906020019184600183028401116401000000008311171561054657600080fd5b91908080601f016020809104026020016040519081016040528093929190818152602001838380828437600081840152601f19601f820116905080830192505050505050509192919290803560ff169060200190929190505050611e93565b60405180821515815260200191505060405180910390f35b3480156105c957600080fd5b506106ba600480360360808110156105e057600080fd5b81019080803573ffffffffffffffffffffffffffffffffffffffff169060200190929190803590602001909291908035906020019064010000000081111561062757600080fd5b82018360208201111561063957600080fd5b8035906020019184600183028401116401000000008311171561065b57600080fd5b91908080601f016020809104026020016040519081016040528093929190818152602001838380828437600081840152601f19601f820116905080830192505050505050509192919290803560ff169060200190929190505050611eec565b60405180831515815260200180602001828103825283818151815260200191508051906020019080838360005b838110156107025780820151818401526020810190506106e7565b50505050905090810190601f16801561072f5780820380516001836020036101000a031916815260200191505b50935050505060405180910390f35b34801561074a57600080fd5b506107816004803603604081101561076157600080fd5b810190808035906020019092919080359060200190929190505050611f61565b6040518080602001828103825283818151815260200191508051906020019080838360005b838110156107c15780820151818401526020810190506107a6565b50505050905090810190601f1680156107ee5780820380516001836020036101000a031916815260200191505b509250505060405180910390f35b34801561080857600080fd5b506108356004803603602081101561081f57600080fd5b8101908080359060200190929190505050611fe8565b6040518082815260200191505060405180910390f35b34801561085757600080fd5b5061089a6004803603602081101561086e57600080fd5b81019080803573ffffffffffffffffffffffffffffffffffffffff169060200190929190505050612000565b005b3480156108a857600080fd5b506108d5600480360360208110156108bf57600080fd5b81019080803590602001909291905050506122fe565b005b610a7b60048036036101408110156108ee57600080fd5b81019080803573ffffffffffffffffffffffffffffffffffffffff169060200190929190803590602001909291908035906020019064010000000081111561093557600080fd5b82018360208201111561094757600080fd5b8035906020019184600183028401116401000000008311171561096957600080fd5b9091929391929390803560ff169060200190929190803590602001909291908035906020019092919080359060200190929190803573ffffffffffffffffffffffffffffffffffffffff169060200190929190803573ffffffffffffffffffffffffffffffffffffffff169060200190929190803590602001906401000000008111156109f557600080fd5b820183602082011115610a0757600080fd5b80359060200191846001830284011164010000000083111715610a2957600080fd5b91908080601f016020809104026020016040519081016040528093929190818152602001838380828437600081840152601f19601f8201169050808301925050505050505091929192905050506123b0565b60405180821515815260200191505060405180910390f35b348015610a9f57600080fd5b50610aec60048036036040811015610ab657600080fd5b81019080803573ffffffffffffffffffffffffffffffffffffffff16906020019092919080359060200190929190505050612847565b6040518082815260200191505060405180910390f35b348015610b0e57600080fd5b50610c6960048036036060811015610b2557600080fd5b810190808035906020019092919080359060200190640100000000811115610b4c57600080fd5b820183602082011115610b5e57600080fd5b80359060200191846001830284011164010000000083111715610b8057600080fd5b91908080601f016020809104026020016040519081016040528093929190818152602001838380828437600081840152601f19601f82011690508083019250505050505050919291929080359060200190640100000000811115610be357600080fd5b820183602082011115610bf557600080fd5b80359060200191846001830284011164010000000083111715610c1757600080fd5b91908080601f016020809104026020016040519081016040528093929190818152602001838380828437600081840152601f19601f82011690508083019250505050505050919291929050505061286c565b005b348015610c7757600080fd5b50610c806128b8565b6040518080602001828103825283818151815260200191508051906020019060200280838360005b83811015610cc3578082015181840152602081019050610ca8565b505050509050019250505060405180910390f35b348015610ce357600080fd5b50610cec612a61565b6040518082815260200191505060405180910390f35b348015610d0e57600080fd5b50610de860048036036040811015610d2557600080fd5b81019080803573ffffffffffffffffffffffffffffffffffffffff16906020019092919080359060200190640100000000811115610d6257600080fd5b820183602082011115610d7457600080fd5b80359060200191846001830284011164010000000083111715610d9657600080fd5b91908080601f016020809104026020016040519081016040528093929190818152602001838380828437600081840152601f19601f820116905080830192505050505050509192919290505050612a67565b005b348015610df657600080fd5b50610f586004803603610100811015610e0e57600080fd5b8101908080359060200190640100000000811115610e2b57600080fd5b820183602082011115610e3d57600080fd5b80359060200191846020830284011164010000000083111715610e5f57600080fd5b909192939192939080359060200190929190803573ffffffffffffffffffffffffffffffffffffffff16906020019092919080359060200190640100000000811115610eaa57600080fd5b820183602082011115610ebc57600080fd5b80359060200191846001830284011164010000000083111715610ede57600080fd5b9091929391929390803573ffffffffffffffffffffffffffffffffffffffff169060200190929190803573ffffffffffffffffffffffffffffffffffffffff16906020019092919080359060200190929190803573ffffffffffffffffffffffffffffffffffffffff169060200190929190505050612a8e565b005b348015610f6657600080fd5b50610fb360048036036040811015610f7d57600080fd5b81019080803573ffffffffffffffffffffffffffffffffffffffff16906020019092919080359060200190929190505050612c4c565b60405180806020018373ffffffffffffffffffffffffffffffffffffffff168152602001828103825284818151815260200191508051906020019060200280838360005b83811015611012578082015181840152602081019050610ff7565b50505050905001935050505060405180910390f35b34801561103357600080fd5b506110606004803603602081101561104a57600080fd5b8101908080359060200190929190505050612f2c565b005b34801561106e57600080fd5b50611186600480360361014081101561108657600080fd5b81019080803573ffffffffffffffffffffffffffffffffffffffff16906020019092919080359060200190929190803590602001906401000000008111156110cd57600080fd5b8201836020820111156110df57600080fd5b8035906020019184600183028401116401000000008311171561110157600080fd5b9091929391929390803560ff169060200190929190803590602001909291908035906020019092919080359060200190929190803573ffffffffffffffffffffffffffffffffffffffff169060200190929190803573ffffffffffffffffffffffffffffffffffffffff16906020019092919080359060200190929190505050613087565b6040518082815260200191505060405180910390f35b3480156111a857600080fd5b5061120b600480360360408110156111bf57600080fd5b81019080803573ffffffffffffffffffffffffffffffffffffffff169060200190929190803573ffffffffffffffffffffffffffffffffffffffff1690602001909291905050506130b4565b005b34801561121957600080fd5b5061125c6004803603602081101561123057600080fd5b81019080803573ffffffffffffffffffffffffffffffffffffffff1690602001909291905050506133b1565b005b34801561126a57600080fd5b506112ed6004803603606081101561128157600080fd5b81019080803573ffffffffffffffffffffffffffffffffffffffff169060200190929190803573ffffffffffffffffffffffffffffffffffffffff169060200190929190803573ffffffffffffffffffffffffffffffffffffffff169060200190929190505050613556565b005b3480156112fb57600080fd5b50611304613a9e565b6040518082815260200191505060405180910390f35b34801561132657600080fd5b506113ea6004803603604081101561133d57600080fd5b81019080803590602001909291908035906020019064010000000081111561136457600080fd5b82018360208201111561137657600080fd5b8035906020019184600183028401116401000000008311171561139857600080fd5b91908080601f016020809104026020016040519081016040528093929190818152602001838380828437600081840152601f19601f820116905080830192505050505050509192919290505050613aa8565b005b3480156113f857600080fd5b5061143b6004803603602081101561140f57600080fd5b81019080803573ffffffffffffffffffffffffffffffffffffffff169060200190929190505050613ac6565b005b34801561144957600080fd5b50611452613b1d565b6040518082815260200191505060405180910390f35b34801561147457600080fd5b506114e16004803603606081101561148b57600080fd5b81019080803573ffffffffffffffffffffffffffffffffffffffff169060200190929190803573ffffffffffffffffffffffffffffffffffffffff16906020019092919080359060200190929190505050613b99565b005b3480156114ef57600080fd5b506114f8613ef4565b6040518080602001828103825283818151815260200191508051906020019080838360005b8381101561153857808201518184015260208101905061151d565b50505050905090810190601f1680156115655780820380516001836020036101000a031916815260200191505b509250505060405180910390f35b61157b613f2d565b600073ffffffffffffffffffffffffffffffffffffffff168273ffffffffffffffffffffffffffffffffffffffff1614806115e25750600173ffffffffffffffffffffffffffffffffffffffff168273ffffffffffffffffffffffffffffffffffffffff16145b8061161857503073ffffffffffffffffffffffffffffffffffffffff168273ffffffffffffffffffffffffffffffffffffffff16145b15611647576116467f4753323033000000000000000000000000000000000000000000000000000000613f8c565b5b600073ffffffffffffffffffffffffffffffffffffffff16600260008473ffffffffffffffffffffffffffffffffffffffff1673ffffffffffffffffffffffffffffffffffffffff16815260200190815260200160002060009054906101000a900473ffffffffffffffffffffffffffffffffffffffff1673ffffffffffffffffffffffffffffffffffffffff1614611704576117037f4753323034000000000000000000000000000000000000000000000000000000613f8c565b5b60026000600173ffffffffffffffffffffffffffffffffffffffff1673ffffffffffffffffffffffffffffffffffffffff16815260200190815260200160002060009054906101000a900473ffffffffffffffffffffffffffffffffffffffff16600260008473ffffffffffffffffffffffffffffffffffffffff1673ffffffffffffffffffffffffffffffffffffffff16815260200190815260200160002060006101000a81548173ffffffffffffffffffffffffffffffffffffffff021916908373ffffffffffffffffffffffffffffffffffffffff1602179055508160026000600173ffffffffffffffffffffffffffffffffffffffff1673ffffffffffffffffffffffffffffffffffffffff16815260200190815260200160002060006101000a81548173ffffffffffffffffffffffffffffffffffffffff021916908373ffffffffffffffffffffffffffffffffffffffff1602179055506003600081548092919060010191905055508173ffffffffffffffffffffffffffffffffffffffff167f9465fa0c962cc76958e6373a993326400c1c94f8be2fe3a952adfa7f60b2ea2660405160405180910390a280600454146118c9576118c8816122fe565b5b5050565b6118e1604182613fcb90919063ffffffff16565b82511015611913576119127f4753303230000000000000000000000000000000000000000000000000000000613f8c565b5b6000808060008060005b86811015611ce55761192f8882614005565b8260ff16925080945081955082965050505060008414156119ac578260001c9450611964604188613fcb90919063ffffffff16565b8260001c1015611998576119977f4753303231000000000000000000000000000000000000000000000000000000613f8c565b5b6119a7858a8a8560001c614034565b611ba9565b6001841415611a7b578260001c94508473ffffffffffffffffffffffffffffffffffffffff168a73ffffffffffffffffffffffffffffffffffffffff1614158015611a4757506000600860008773ffffffffffffffffffffffffffffffffffffffff1673ffffffffffffffffffffffffffffffffffffffff16815260200190815260200160002060008b815260200190815260200160002054145b15611a7657611a757f4753303235000000000000000000000000000000000000000000000000000000613f8c565b5b611ba8565b601e841115611b405760018960405160200180807f19457468657265756d205369676e6564204d6573736167653a0a333200000000815250601c018281526020019150506040516020818303038152906040528051906020012060048603858560405160008152602001604052604051808581526020018460ff1681526020018381526020018281526020019450505050506020604051602081039080840390855afa158015611b2f573d6000803e3d6000fd5b505050602060405103519450611ba7565b60018985858560405160008152602001604052604051808581526020018460ff1681526020018381526020018281526020019450505050506020604051602081039080840390855afa158015611b9a573d6000803e3d6000fd5b5050506020604051035194505b5b5b8573ffffffffffffffffffffffffffffffffffffffff168573ffffffffffffffffffffffffffffffffffffffff16111580611c6f5750600073ffffffffffffffffffffffffffffffffffffffff16600260008773ffffffffffffffffffffffffffffffffffffffff1673ffffffffffffffffffffffffffffffffffffffff16815260200190815260200160002060009054906101000a900473ffffffffffffffffffffffffffffffffffffffff1673ffffffffffffffffffffffffffffffffffffffff16145b80611ca65750600173ffffffffffffffffffffffffffffffffffffffff168573ffffffffffffffffffffffffffffffffffffffff16145b15611cd557611cd47f4753303236000000000000000000000000000000000000000000000000000000613f8c565b5b849550808060010191505061191d565b50505050505050505050565b60008173ffffffffffffffffffffffffffffffffffffffff16600173ffffffffffffffffffffffffffffffffffffffff1614158015611dbc5750600073ffffffffffffffffffffffffffffffffffffffff16600160008473ffffffffffffffffffffffffffffffffffffffff1673ffffffffffffffffffffffffffffffffffffffff16815260200190815260200160002060009054906101000a900473ffffffffffffffffffffffffffffffffffffffff1673ffffffffffffffffffffffffffffffffffffffff1614155b9050919050565b6000600173ffffffffffffffffffffffffffffffffffffffff168273ffffffffffffffffffffffffffffffffffffffff161480611e8b5750600073ffffffffffffffffffffffffffffffffffffffff16600260008473ffffffffffffffffffffffffffffffffffffffff1673ffffffffffffffffffffffffffffffffffffffff16815260200190815260200160002060009054906101000a900473ffffffffffffffffffffffffffffffffffffffff1673ffffffffffffffffffffffffffffffffffffffff16145b159050919050565b6000806000611ea48787878761425d565b91509150611ed5878787877fffffffffffffffffffffffffffffffffffffffffffffffffffffffffffffffff61452f565b9250611ee282828561457b565b5050949350505050565b60006060600080611eff8888888861425d565b91509150611f30888888887fffffffffffffffffffffffffffffffffffffffffffffffffffffffffffffffff61452f565b9350604051925060203d0183016040523d83523d6000602085013e611f5682828661457b565b505094509492505050565b606060006020830267ffffffffffffffff81118015611f7f57600080fd5b506040519080825280601f01601f191660200182016040528015611fb25781602001600182028036833780820191505090505b50905060005b83811015611fdd57808501548060208302602085010152508080600101915050611fb8565b508091505092915050565b60076020528060005260406000206000915090505481565b612008613f2d565b600073ffffffffffffffffffffffffffffffffffffffff168173ffffffffffffffffffffffffffffffffffffffff16148061206f5750600173ffffffffffffffffffffffffffffffffffffffff168173ffffffffffffffffffffffffffffffffffffffff16145b1561209e5761209d7f4753313031000000000000000000000000000000000000000000000000000000613f8c565b5b600073ffffffffffffffffffffffffffffffffffffffff16600160008373ffffffffffffffffffffffffffffffffffffffff1673ffffffffffffffffffffffffffffffffffffffff16815260200190815260200160002060009054906101000a900473ffffffffffffffffffffffffffffffffffffffff1673ffffffffffffffffffffffffffffffffffffffff161461215b5761215a7f4753313032000000000000000000000000000000000000000000000000000000613f8c565b5b60016000600173ffffffffffffffffffffffffffffffffffffffff1673ffffffffffffffffffffffffffffffffffffffff16815260200190815260200160002060009054906101000a900473ffffffffffffffffffffffffffffffffffffffff16600160008373ffffffffffffffffffffffffffffffffffffffff1673ffffffffffffffffffffffffffffffffffffffff16815260200190815260200160002060006101000a81548173ffffffffffffffffffffffffffffffffffffffff021916908373ffffffffffffffffffffffffffffffffffffffff1602179055508060016000600173ffffffffffffffffffffffffffffffffffffffff1673ffffffffffffffffffffffffffffffffffffffff16815260200190815260200160002060006101000a81548173ffffffffffffffffffffffffffffffffffffffff021916908373ffffffffffffffffffffffffffffffffffffffff1602179055508073ffffffffffffffffffffffffffffffffffffffff167fecdf3a3effea5783a3c4c2140e677577666428d44ed9d474a0b3a4c9943f844060405160405180910390a250565b612306613f2d565b60035481111561233a576123397f4753323031000000000000000000000000000000000000000000000000000000613f8c565b5b600081141561236d5761236c7f4753323032000000000000000000000000000000000000000000000000000000613f8c565b5b806004819055507f610f7ff2b304ae8903c3de74c60c6ab1f7d6226b3f52c5161905bb5ad4039c936004546040518082815260200191505060405180910390a150565b6000806123d68d8d8d8d8d8d8d8d8d8d6005600081548092919060010191905055613087565b90506123e28184613aa8565b60006123ec6146bc565b9050600073ffffffffffffffffffffffffffffffffffffffff168173ffffffffffffffffffffffffffffffffffffffff16146125d2578073ffffffffffffffffffffffffffffffffffffffff166375f0bb528f8f8f8f8f8f8f8f8f8f8f336040518d63ffffffff1660e01b8152600401808d73ffffffffffffffffffffffffffffffffffffffff1681526020018c8152602001806020018a600181111561248f57fe5b81526020018981526020018881526020018781526020018673ffffffffffffffffffffffffffffffffffffffff1681526020018573ffffffffffffffffffffffffffffffffffffffff168152602001806020018473ffffffffffffffffffffffffffffffffffffffff16815260200183810383528d8d82818152602001925080828437600081840152601f19601f820116905080830192505050838103825285818151815260200191508051906020019080838360005b83811015612561578082015181840152602081019050612546565b50505050905090810190601f16801561258e5780820380516001836020036101000a031916815260200191505b509e505050505050505050505050505050600060405180830381600087803b1580156125b957600080fd5b505af11580156125cd573d6000803e3d6000fd5b505050505b6101f46125f96109c48b01603f60408d02816125ea57fe5b046146e590919063ffffffff16565b015a101561262b5761262a7f4753303130000000000000000000000000000000000000000000000000000000613f8c565b5b60005a90506126948f8f8f8f8080601f016020809104026020016040519081016040528093929190818152602001838380828437600081840152601f19601f820116905080830192505050505050508e60008d14612689578e61268f565b6109c45a035b61452f565b93506126a95a826146ff90919063ffffffff16565b9050831580156126b9575060008a145b80156126c55750600088145b156126f4576126f37f4753303133000000000000000000000000000000000000000000000000000000613f8c565b5b60008089111561270e5761270b828b8b8b8b61471f565b90505b841561275157837f442e715f626346e8c54381002da614f62bee8d27386535b2521ec8540898556e826040518082815260200191505060405180910390a261278a565b837f23428b18acfb3ea64b08dc0c1d296ea9c09702c09083ca5272e64d115b687d23826040518082815260200191505060405180910390a25b5050600073ffffffffffffffffffffffffffffffffffffffff168173ffffffffffffffffffffffffffffffffffffffff1614612836578073ffffffffffffffffffffffffffffffffffffffff16639327136883856040518363ffffffff1660e01b815260040180838152602001821515815260200192505050600060405180830381600087803b15801561281d57600080fd5b505af1158015612831573d6000803e3d6000fd5b505050505b50509b9a5050505050505050505050565b6008602052816000526040600020602052806000526040600020600091509150505481565b6000600454905060008114156128a6576128a57f4753303031000000000000000000000000000000000000000000000000000000613f8c565b5b6128b2338584846118cd565b50505050565b6060600060035467ffffffffffffffff811180156128d557600080fd5b506040519080825280602002602001820160405280156129045781602001602082028036833780820191505090505b50905060008060026000600173ffffffffffffffffffffffffffffffffffffffff1673ffffffffffffffffffffffffffffffffffffffff16815260200190815260200160002060009054906101000a900473ffffffffffffffffffffffffffffffffffffffff1690505b600173ffffffffffffffffffffffffffffffffffffffff168173ffffffffffffffffffffffffffffffffffffffff1614612a5857808383815181106129af57fe5b602002602001019073ffffffffffffffffffffffffffffffffffffffff16908173ffffffffffffffffffffffffffffffffffffffff1681525050600260008273ffffffffffffffffffffffffffffffffffffffff1673ffffffffffffffffffffffffffffffffffffffff16815260200190815260200160002060009054906101000a900473ffffffffffffffffffffffffffffffffffffffff169050818060010192505061296e565b82935050505090565b60055481565b600080825160208401855af46040518181523d60208201523d6000604083013e60403d0181fd5b612ad98a8a80806020026020016040519081016040528093929190818152602001838360200280828437600081840152601f19601f82011690508083019250505050505050896148d3565b600073ffffffffffffffffffffffffffffffffffffffff168473ffffffffffffffffffffffffffffffffffffffff1614612b1757612b1684614c7a565b5b612b658787878080601f016020809104026020016040519081016040528093929190818152602001838380828437600081840152601f19601f82011690508083019250505050505050614cfe565b6000821115612b7f57612b7d8260006001868561471f565b505b3373ffffffffffffffffffffffffffffffffffffffff167f141df868a6331af528e38c83b7aa03edc19be66e37ae67f9285bf4f8e3c6a1a88b8b8b8b8960405180806020018581526020018473ffffffffffffffffffffffffffffffffffffffff1681526020018373ffffffffffffffffffffffffffffffffffffffff1681526020018281038252878782818152602001925060200280828437600081840152601f19601f820116905080830192505050965050505050505060405180910390a250505050505050505050565b60606000600173ffffffffffffffffffffffffffffffffffffffff168473ffffffffffffffffffffffffffffffffffffffff1614158015612c935750612c9184611cf1565b155b15612cc257612cc17f4753313035000000000000000000000000000000000000000000000000000000613f8c565b5b6000831415612cf557612cf47f4753313036000000000000000000000000000000000000000000000000000000613f8c565b5b8267ffffffffffffffff81118015612d0c57600080fd5b50604051908082528060200260200182016040528015612d3b5781602001602082028036833780820191505090505b5091506000600160008673ffffffffffffffffffffffffffffffffffffffff1673ffffffffffffffffffffffffffffffffffffffff16815260200190815260200160002060009054906101000a900473ffffffffffffffffffffffffffffffffffffffff1691505b600073ffffffffffffffffffffffffffffffffffffffff168273ffffffffffffffffffffffffffffffffffffffff1614158015612e0d5750600173ffffffffffffffffffffffffffffffffffffffff168273ffffffffffffffffffffffffffffffffffffffff1614155b8015612e1857508381105b15612ed35781838281518110612e2a57fe5b602002602001019073ffffffffffffffffffffffffffffffffffffffff16908173ffffffffffffffffffffffffffffffffffffffff1681525050600160008373ffffffffffffffffffffffffffffffffffffffff1673ffffffffffffffffffffffffffffffffffffffff16815260200190815260200160002060009054906101000a900473ffffffffffffffffffffffffffffffffffffffff1691508080600101915050612da3565b600173ffffffffffffffffffffffffffffffffffffffff168273ffffffffffffffffffffffffffffffffffffffff1614612f2157826001820381518110612f1657fe5b602002602001015191505b808352509250929050565b600073ffffffffffffffffffffffffffffffffffffffff16600260003373ffffffffffffffffffffffffffffffffffffffff1673ffffffffffffffffffffffffffffffffffffffff16815260200190815260200160002060009054906101000a900473ffffffffffffffffffffffffffffffffffffffff1673ffffffffffffffffffffffffffffffffffffffff161415612fea57612fe97f4753303330000000000000000000000000000000000000000000000000000000613f8c565b5b6001600860003373ffffffffffffffffffffffffffffffffffffffff1673ffffffffffffffffffffffffffffffffffffffff1681526020019081526020016000206000838152602001908152602001600020819055503373ffffffffffffffffffffffffffffffffffffffff16817ff2a0eb156472d1440255b0d7c1e19cc07115d1051fe605b0dce69acfec884d9c60405160405180910390a350565b600061309c8c8c8c8c8c8c8c8c8c8c8c614f08565b8051906020012090509b9a5050505050505050505050565b6130bc613f2d565b600073ffffffffffffffffffffffffffffffffffffffff168173ffffffffffffffffffffffffffffffffffffffff1614806131235750600173ffffffffffffffffffffffffffffffffffffffff168173ffffffffffffffffffffffffffffffffffffffff16145b15613152576131517f4753313031000000000000000000000000000000000000000000000000000000613f8c565b5b8073ffffffffffffffffffffffffffffffffffffffff16600160008473ffffffffffffffffffffffffffffffffffffffff1673ffffffffffffffffffffffffffffffffffffffff16815260200190815260200160002060009054906101000a900473ffffffffffffffffffffffffffffffffffffffff1673ffffffffffffffffffffffffffffffffffffffff161461320e5761320d7f4753313033000000000000000000000000000000000000000000000000000000613f8c565b5b600160008273ffffffffffffffffffffffffffffffffffffffff1673ffffffffffffffffffffffffffffffffffffffff16815260200190815260200160002060009054906101000a900473ffffffffffffffffffffffffffffffffffffffff16600160008473ffffffffffffffffffffffffffffffffffffffff1673ffffffffffffffffffffffffffffffffffffffff16815260200190815260200160002060006101000a81548173ffffffffffffffffffffffffffffffffffffffff021916908373ffffffffffffffffffffffffffffffffffffffff1602179055506000600160008373ffffffffffffffffffffffffffffffffffffffff1673ffffffffffffffffffffffffffffffffffffffff16815260200190815260200160002060006101000a81548173ffffffffffffffffffffffffffffffffffffffff021916908373ffffffffffffffffffffffffffffffffffffffff1602179055508073ffffffffffffffffffffffffffffffffffffffff167faab4fa2b463f581b2b32cb3b7e3b704b9ce37cc209b5fb4d77e593ace405427660405160405180910390a25050565b6133b9613f2d565b600073ffffffffffffffffffffffffffffffffffffffff168173ffffffffffffffffffffffffffffffffffffffff16141580156134be57508073ffffffffffffffffffffffffffffffffffffffff166301ffc9a77f945b8148000000000000000000000000000000000000000000000000000000006040518263ffffffff1660e01b815260040180827bffffffffffffffffffffffffffffffffffffffffffffffffffffffff1916815260200191505060206040518083038186803b15801561348157600080fd5b505afa158015613495573d6000803e3d6000fd5b505050506040513d60208110156134ab57600080fd5b8101908080519060200190929190505050155b156134ed576134ec7f4753333030000000000000000000000000000000000000000000000000000000613f8c565b5b807f4a204f620c8c5ccdca3fd54d003badd85ba500436a431f0cbda4f558c93c34c8558073ffffffffffffffffffffffffffffffffffffffff167f1151116914515bc0891ff9047a6cb32cf902546f83066499bcf8ba33d2353fa260405160405180910390a250565b61355e613f2d565b600073ffffffffffffffffffffffffffffffffffffffff168173ffffffffffffffffffffffffffffffffffffffff1614806135c55750600173ffffffffffffffffffffffffffffffffffffffff168173ffffffffffffffffffffffffffffffffffffffff16145b806135fb57503073ffffffffffffffffffffffffffffffffffffffff168173ffffffffffffffffffffffffffffffffffffffff16145b1561362a576136297f4753323033000000000000000000000000000000000000000000000000000000613f8c565b5b600073ffffffffffffffffffffffffffffffffffffffff16600260008373ffffffffffffffffffffffffffffffffffffffff1673ffffffffffffffffffffffffffffffffffffffff16815260200190815260200160002060009054906101000a900473ffffffffffffffffffffffffffffffffffffffff1673ffffffffffffffffffffffffffffffffffffffff16146136e7576136e67f4753323034000000000000000000000000000000000000000000000000000000613f8c565b5b600073ffffffffffffffffffffffffffffffffffffffff168273ffffffffffffffffffffffffffffffffffffffff16148061374e5750600173ffffffffffffffffffffffffffffffffffffffff168273ffffffffffffffffffffffffffffffffffffffff16145b1561377d5761377c7f4753323033000000000000000000000000000000000000000000000000000000613f8c565b5b8173ffffffffffffffffffffffffffffffffffffffff16600260008573ffffffffffffffffffffffffffffffffffffffff1673ffffffffffffffffffffffffffffffffffffffff16815260200190815260200160002060009054906101000a900473ffffffffffffffffffffffffffffffffffffffff1673ffffffffffffffffffffffffffffffffffffffff1614613839576138387f4753323035000000000000000000000000000000000000000000000000000000613f8c565b5b600260008373ffffffffffffffffffffffffffffffffffffffff1673ffffffffffffffffffffffffffffffffffffffff16815260200190815260200160002060009054906101000a900473ffffffffffffffffffffffffffffffffffffffff16600260008373ffffffffffffffffffffffffffffffffffffffff1673ffffffffffffffffffffffffffffffffffffffff16815260200190815260200160002060006101000a81548173ffffffffffffffffffffffffffffffffffffffff021916908373ffffffffffffffffffffffffffffffffffffffff16021790555080600260008573ffffffffffffffffffffffffffffffffffffffff1673ffffffffffffffffffffffffffffffffffffffff16815260200190815260200160002060006101000a81548173ffffffffffffffffffffffffffffffffffffffff021916908373ffffffffffffffffffffffffffffffffffffffff1602179055506000600260008473ffffffffffffffffffffffffffffffffffffffff1673ffffffffffffffffffffffffffffffffffffffff16815260200190815260200160002060006101000a81548173ffffffffffffffffffffffffffffffffffffffff021916908373ffffffffffffffffffffffffffffffffffffffff1602179055508173ffffffffffffffffffffffffffffffffffffffff167ff8d49fc529812e9a7c5c50e69c20f0dccc0db8fa95c98bc58cc9a4f1c1299eaf60405160405180910390a28073ffffffffffffffffffffffffffffffffffffffff167f9465fa0c962cc76958e6373a993326400c1c94f8be2fe3a952adfa7f60b2ea2660405160405180910390a2505050565b6000600454905090565b613ac282604051806020016040528060008152508361286c565b5050565b613ace613f2d565b613ad781614c7a565b8073ffffffffffffffffffffffffffffffffffffffff167f5ac6c46c93c8d0e53714ba3b53db3e7c046da994313d7ed0d192028bc7c228b060405160405180910390a250565b6000804690507f47e79534a245952e8b16893a336b85a3d9ea9fa8c573f3d803afb92a7946921860001b8130604051602001808481526020018381526020018273ffffffffffffffffffffffffffffffffffffffff16815260200193505050506040516020818303038152906040528051906020012091505090565b613ba1613f2d565b806001600354031015613bd857613bd77f4753323031000000000000000000000000000000000000000000000000000000613f8c565b5b600073ffffffffffffffffffffffffffffffffffffffff168273ffffffffffffffffffffffffffffffffffffffff161480613c3f5750600173ffffffffffffffffffffffffffffffffffffffff168273ffffffffffffffffffffffffffffffffffffffff16145b15613c6e57613c6d7f4753323033000000000000000000000000000000000000000000000000000000613f8c565b5b8173ffffffffffffffffffffffffffffffffffffffff16600260008573ffffffffffffffffffffffffffffffffffffffff1673ffffffffffffffffffffffffffffffffffffffff16815260200190815260200160002060009054906101000a900473ffffffffffffffffffffffffffffffffffffffff1673ffffffffffffffffffffffffffffffffffffffff1614613d2a57613d297f4753323035000000000000000000000000000000000000000000000000000000613f8c565b5b600260008373ffffffffffffffffffffffffffffffffffffffff1673ffffffffffffffffffffffffffffffffffffffff16815260200190815260200160002060009054906101000a900473ffffffffffffffffffffffffffffffffffffffff16600260008573ffffffffffffffffffffffffffffffffffffffff1673ffffffffffffffffffffffffffffffffffffffff16815260200190815260200160002060006101000a81548173ffffffffffffffffffffffffffffffffffffffff021916908373ffffffffffffffffffffffffffffffffffffffff1602179055506000600260008473ffffffffffffffffffffffffffffffffffffffff1673ffffffffffffffffffffffffffffffffffffffff16815260200190815260200160002060006101000a81548173ffffffffffffffffffffffffffffffffffffffff021916908373ffffffffffffffffffffffffffffffffffffffff160217905550600360008154809291906001900391905055508173ffffffffffffffffffffffffffffffffffffffff167ff8d49fc529812e9a7c5c50e69c20f0dccc0db8fa95c98bc58cc9a4f1c1299eaf60405160405180910390a28060045414613eef57613eee816122fe565b5b505050565b6040518060400160405280600581526020017f312e342e3100000000000000000000000000000000000000000000000000000081525081565b3073ffffffffffffffffffffffffffffffffffffffff163373ffffffffffffffffffffffffffffffffffffffff1614613f8a57613f897f4753303331000000000000000000000000000000000000000000000000000000613f8c565b5b565b6040517f08c379a00000000000000000000000000000000000000000000000000000000081526020600482015260056024820152816044820152606481fd5b600080831415613fde5760009050613fff565b6000828402905082848281613fef57fe5b0414613ffa57600080fd5b809150505b92915050565b6000806000836041026020810186015192506040810186015191506060810186015160001a9350509250925092565b815161404a6020836150b090919063ffffffff16565b111561407a576140797f4753303232000000000000000000000000000000000000000000000000000000613f8c565b5b600060208284010151905082516140ad8261409f6020866150b090919063ffffffff16565b6150b090919063ffffffff16565b11156140dd576140dc7f4753303233000000000000000000000000000000000000000000000000000000613f8c565b5b60606020838501019050631626ba7e60e01b7bffffffffffffffffffffffffffffffffffffffffffffffffffffffff19168673ffffffffffffffffffffffffffffffffffffffff16631626ba7e87846040518363ffffffff1660e01b81526004018083815260200180602001828103825283818151815260200191508051906020019080838360005b83811015614181578082015181840152602081019050614166565b50505050905090810190601f1680156141ae5780820380516001836020036101000a031916815260200191505b50935050505060206040518083038186803b1580156141cc57600080fd5b505afa1580156141e0573d6000803e3d6000fd5b505050506040513d60208110156141f657600080fd5b81019080805190602001909291905050507bffffffffffffffffffffffffffffffffffffffffffffffffffffffff191614614255576142547f4753303234000000000000000000000000000000000000000000000000000000613f8c565b5b505050505050565b6000806142686146bc565b9150600173ffffffffffffffffffffffffffffffffffffffff163373ffffffffffffffffffffffffffffffffffffffff16141580156143335750600073ffffffffffffffffffffffffffffffffffffffff16600160003373ffffffffffffffffffffffffffffffffffffffff1673ffffffffffffffffffffffffffffffffffffffff16815260200190815260200160002060009054906101000a900473ffffffffffffffffffffffffffffffffffffffff1673ffffffffffffffffffffffffffffffffffffffff1614155b6143a5576040517f08c379a00000000000000000000000000000000000000000000000000000000081526004018080602001828103825260058152602001807f475331303400000000000000000000000000000000000000000000000000000081525060200191505060405180910390fd5b600073ffffffffffffffffffffffffffffffffffffffff168273ffffffffffffffffffffffffffffffffffffffff1614614526578173ffffffffffffffffffffffffffffffffffffffff1663728c297287878787336040518663ffffffff1660e01b8152600401808673ffffffffffffffffffffffffffffffffffffffff1681526020018581526020018060200184600181111561443f57fe5b81526020018373ffffffffffffffffffffffffffffffffffffffff168152602001828103825285818151815260200191508051906020019080838360005b8381101561449857808201518184015260208101905061447d565b50505050905090810190601f1680156144c55780820380516001836020036101000a031916815260200191505b509650505050505050602060405180830381600087803b1580156144e857600080fd5b505af11580156144fc573d6000803e3d6000fd5b505050506040513d602081101561451257600080fd5b810190808051906020019092919050505090505b94509492505050565b600060018081111561453d57fe5b83600181111561454957fe5b1415614562576000808551602087018986f49050614572565b600080855160208701888a87f190505b95945050505050565b600073ffffffffffffffffffffffffffffffffffffffff168373ffffffffffffffffffffffffffffffffffffffff1614614625578273ffffffffffffffffffffffffffffffffffffffff16639327136883836040518363ffffffff1660e01b815260040180838152602001821515815260200192505050600060405180830381600087803b15801561460c57600080fd5b505af1158015614620573d6000803e3d6000fd5b505050505b8015614673573373ffffffffffffffffffffffffffffffffffffffff167f6895c13664aa4f67288b25d7a21d7aaa34916e355fb9b6fae0a139a9085becb860405160405180910390a26146b7565b3373ffffffffffffffffffffffffffffffffffffffff167facd2c8702804128fdb0db2bb49f6d127dd0181c13fd45dbfe16de0930e2bd37560405160405180910390a25b505050565b60007f4a204f620c8c5ccdca3fd54d003badd85ba500436a431f0cbda4f558c93c34c854905090565b6000818310156146f557816146f7565b825b905092915050565b60008282111561470e57600080fd5b600082840390508091505092915050565b600080600073ffffffffffffffffffffffffffffffffffffffff168373ffffffffffffffffffffffffffffffffffffffff161461475c578261475e565b325b9050600073ffffffffffffffffffffffffffffffffffffffff168473ffffffffffffffffffffffffffffffffffffffff161415614868576147c83a86106147a5573a6147a7565b855b6147ba888a6150b090919063ffffffff16565b613fcb90919063ffffffff16565b915060008173ffffffffffffffffffffffffffffffffffffffff168360405180600001905060006040518083038185875af1925050503d806000811461482a576040519150601f19603f3d011682016040523d82523d6000602084013e61482f565b606091505b5050905080614862576148617f4753303131000000000000000000000000000000000000000000000000000000613f8c565b5b506148c9565b61488d8561487f888a6150b090919063ffffffff16565b613fcb90919063ffffffff16565b915061489a8482846150cf565b6148c8576148c77f4753303132000000000000000000000000000000000000000000000000000000613f8c565b5b5b5095945050505050565b60006004541115614908576149077f4753323030000000000000000000000000000000000000000000000000000000613f8c565b5b815181111561493b5761493a7f4753323031000000000000000000000000000000000000000000000000000000613f8c565b5b600081141561496e5761496d7f4753323032000000000000000000000000000000000000000000000000000000613f8c565b5b60006001905060005b8351811015614be657600084828151811061498e57fe5b60200260200101519050600073ffffffffffffffffffffffffffffffffffffffff168173ffffffffffffffffffffffffffffffffffffffff1614806149ff5750600173ffffffffffffffffffffffffffffffffffffffff168173ffffffffffffffffffffffffffffffffffffffff16145b80614a3557503073ffffffffffffffffffffffffffffffffffffffff168173ffffffffffffffffffffffffffffffffffffffff16145b80614a6b57508073ffffffffffffffffffffffffffffffffffffffff168373ffffffffffffffffffffffffffffffffffffffff16145b15614a9a57614a997f4753323033000000000000000000000000000000000000000000000000000000613f8c565b5b600073ffffffffffffffffffffffffffffffffffffffff16600260008373ffffffffffffffffffffffffffffffffffffffff1673ffffffffffffffffffffffffffffffffffffffff16815260200190815260200160002060009054906101000a900473ffffffffffffffffffffffffffffffffffffffff1673ffffffffffffffffffffffffffffffffffffffff1614614b5757614b567f4753323034000000000000000000000000000000000000000000000000000000613f8c565b5b80600260008573ffffffffffffffffffffffffffffffffffffffff1673ffffffffffffffffffffffffffffffffffffffff16815260200190815260200160002060006101000a81548173ffffffffffffffffffffffffffffffffffffffff021916908373ffffffffffffffffffffffffffffffffffffffff160217905550809250508080600101915050614977565b506001600260008373ffffffffffffffffffffffffffffffffffffffff1673ffffffffffffffffffffffffffffffffffffffff16815260200190815260200160002060006101000a81548173ffffffffffffffffffffffffffffffffffffffff021916908373ffffffffffffffffffffffffffffffffffffffff160217905550825160038190555081600481905550505050565b3073ffffffffffffffffffffffffffffffffffffffff168173ffffffffffffffffffffffffffffffffffffffff161415614cd857614cd77f4753343030000000000000000000000000000000000000000000000000000000613f8c565b5b807f6c9a6c4a39284e37ed1cf53d337577d14212a4870fb976a4366c693b939918d55550565b600073ffffffffffffffffffffffffffffffffffffffff1660016000600173ffffffffffffffffffffffffffffffffffffffff1673ffffffffffffffffffffffffffffffffffffffff16815260200190815260200160002060009054906101000a900473ffffffffffffffffffffffffffffffffffffffff1673ffffffffffffffffffffffffffffffffffffffff1614614dbc57614dbb7f4753313030000000000000000000000000000000000000000000000000000000613f8c565b5b6001806000600173ffffffffffffffffffffffffffffffffffffffff1673ffffffffffffffffffffffffffffffffffffffff16815260200190815260200160002060006101000a81548173ffffffffffffffffffffffffffffffffffffffff021916908373ffffffffffffffffffffffffffffffffffffffff160217905550600073ffffffffffffffffffffffffffffffffffffffff168273ffffffffffffffffffffffffffffffffffffffff1614614f0457614e7882615193565b614ea657614ea57f4753303032000000000000000000000000000000000000000000000000000000613f8c565b5b614ed58260008360017fffffffffffffffffffffffffffffffffffffffffffffffffffffffffffffffff61452f565b614f0357614f027f4753303030000000000000000000000000000000000000000000000000000000613f8c565b5b5b5050565b606060007fbb8310d486368db6bd6f849402fdd73ad53d316b5a4b2644ad6efe0f941286d860001b8d8d8d8d60405180838380828437808301925050509250505060405180910390208c8c8c8c8c8c8c604051602001808c81526020018b73ffffffffffffffffffffffffffffffffffffffff1681526020018a8152602001898152602001886001811115614f9957fe5b81526020018781526020018681526020018581526020018473ffffffffffffffffffffffffffffffffffffffff1681526020018373ffffffffffffffffffffffffffffffffffffffff1681526020018281526020019b505050505050505050505050604051602081830303815290604052805190602001209050601960f81b600160f81b615025613b1d565b8360405160200180857effffffffffffffffffffffffffffffffffffffffffffffffffffffffffffff19168152600101847effffffffffffffffffffffffffffffffffffffffffffffffffffffffffffff191681526001018381526020018281526020019450505050506040516020818303038152906040529150509b9a5050505050505050505050565b6000808284019050838110156150c557600080fd5b8091505092915050565b60008063a9059cbb8484604051602401808373ffffffffffffffffffffffffffffffffffffffff168152602001828152602001925050506040516020818303038152906040529060e01b6020820180517bffffffffffffffffffffffffffffffffffffffffffffffffffffffff83818316178352505050509050602060008251602084016000896127105a03f13d60008114615176576020811461517e5760009350615189565b819350615189565b600051158215171593505b5050509392505050565b600080823b90506000811191505091905056fea2646970667358221220b96e1c4693417874c29f6871facabbcdb78138dcafd8ea18c130586a323b60cf64736f6c63430007060033",
  "devdoc": {
    "author": "Stefan George - @Georgi87Richard Meissner - @rmeissner",
    "details": "Most important concepts:      - Threshold: Number of required confirmations for a Safe transaction.      - Owners: List of addresses that control the Safe. They are the only ones that can add/remove owners, change the threshold and        approve transactions. Managed in `OwnerManager`.      - Transaction Hash: Hash of a transaction is calculated using the EIP-712 typed structured data hashing scheme.      - Nonce: Each transaction should have a different nonce to prevent replay attacks.      - Signature: A valid signature of an owner of the Safe for a transaction hash.      - Guard: Guard is a contract that can execute pre- and post- transaction checks. Managed in `GuardManager`.      - Modules: Modules are contracts that can be used to extend the write functionality of a Safe. Managed in `ModuleManager`.      - Fallback: Fallback handler is a contract that can provide additional read-only functional for Safe. Managed in `FallbackManager`.      Note: This version of the implementation contract doesn't emit events for the sake of gas efficiency and therefore requires a tracing node for indexing/      For the events-based implementation see `SafeL2.sol`.",
    "kind": "dev",
    "methods": {
      "addOwnerWithThreshold(address,uint256)": {
        "details": "This can only be done via a Safe transaction.",
        "params": {
          "_threshold": "New threshold.",
          "owner": "New owner address."
        }
      },
      "approveHash(bytes32)": {
        "details": "This can be used with a pre-approved hash transaction signature.      IMPORTANT: The approved hash stays approved forever. There's no revocation mechanism, so it behaves similarly to ECDSA signatures",
        "params": {
          "hashToApprove": "The hash to mark as approved for signatures that are verified by this contract."
        }
      },
      "changeThreshold(uint256)": {
        "details": "This can only be done via a Safe transaction.",
        "params": {
          "_threshold": "New threshold."
        }
      },
      "checkNSignatures(address,bytes32,bytes,uint256)": {
        "details": "Since the EIP-1271 does an external call, be mindful of reentrancy attacks.",
        "params": {
          "dataHash": "Hash of the data (could be either a message hash or transaction hash)",
          "executor": "Address that executing the transaction.         Make sure that the executor address is a legitmate executor.        Incorrectly passed the executor might reduce the threshold by 1 signature. ",
          "requiredSignatures": "Amount of required valid signatures.",
          "signatures": "Signature data that should be verified.                   Can be packed ECDSA signature ({bytes32 r}{bytes32 s}{uint8 v}), contract signature (EIP-1271) or approved hash."
        }
      },
      "checkSignatures(bytes32,bytes)": {
        "params": {
          "dataHash": "Hash of the data (could be either a message hash or transaction hash)",
          "signatures": "Signature data that should be verified.                   Can be packed ECDSA signature ({bytes32 r}{bytes32 s}{uint8 v}), contract signature (EIP-1271) or approved hash."
        }
      },
      "checkSignatures(bytes32,bytes,bytes)": {
        "details": "This function makes it compatible with previous versions.",
        "params": {
          "dataHash": "Hash of the data (could be either a message hash or transaction hash)",
          "signatures": "Signature data that should be verified.                   Can be packed ECDSA signature ({bytes32 r}{bytes32 s}{uint8 v}), contract signature (EIP-1271) or approved hash."
        }
      },
      "disableModule(address,address)": {
        "details": "This can only be done via a Safe transaction.",
        "params": {
          "module": "Module to be removed.",
          "prevModule": "Previous module in the modules linked list."
        }
      },
      "domainSeparator()": {
        "details": "Returns the domain separator for this contract, as defined in the EIP-712 standard.",
        "returns": {
          "_0": "bytes32 The domain separator hash."
        }
      },
      "enableModule(address)": {
        "details": "This can only be done via a Safe transaction.",
        "params": {
          "module": "Module to be whitelisted."
        }
      },
      "execTransaction(address,uint256,bytes,uint8,uint256,uint256,uint256,address,address,bytes)": {
        "details": "The fees are always transferred, even if the user transaction fails.      This method doesn't perform any sanity check of the transaction, such as:      - if the contract at `to` address has code or not      - if the `gasToken` is a contract or not      It is the responsibility of the caller to perform such checks.",
        "params": {
          "baseGas": "Gas costs that are independent of the transaction execution(e.g. base transaction fee, signature check, payment of the refund)",
          "data": "Data payload of Safe transaction.",
          "gasPrice": "Gas price that should be used for the payment calculation.",
          "gasToken": "Token address (or 0 if ETH) that is used for the payment.",
          "operation": "Operation type of Safe transaction.",
          "refundReceiver": "Address of receiver of gas payment (or 0 if tx.origin).",
          "safeTxGas": "Gas that should be used for the Safe transaction.",
          "signatures": "Signature data that should be verified.                   Can be packed ECDSA signature ({bytes32 r}{bytes32 s}{uint8 v}), contract signature (EIP-1271) or approved hash.",
          "to": "Destination address of Safe transaction.",
          "value": "Ether value of Safe transaction."
        },
        "returns": {
          "success": "Boolean indicating transaction's success."
        }
      },
      "execTransactionFromModule(address,uint256,bytes,uint8)": {
        "details": "Function is virtual to allow overriding for L2 singleton to emit an event for indexing.",
        "params": {
          "data": "Data payload of module transaction.",
          "operation": "Operation type of module transaction.",
          "to": "Destination address of module transaction.",
          "value": "Ether value of module transaction."
        },
        "returns": {
          "success": "Boolean flag indicating if the call succeeded."
        }
      },
      "execTransactionFromModuleReturnData(address,uint256,bytes,uint8)": {
        "params": {
          "data": "Data payload of module transaction.",
          "operation": "Operation type of module transaction.",
          "to": "Destination address of module transaction.",
          "value": "Ether value of module transaction."
        },
        "returns": {
          "returnData": "Data returned by the call.",
          "success": "Boolean flag indicating if the call succeeded."
        }
      },
      "getModulesPaginated(address,uint256)": {
        "params": {
          "pageSize": "Maximum number of modules that should be returned. Has to be > 0",
          "start": "Start of the page. Has to be a module or start pointer (0x1 address)"
        },
        "returns": {
          "array": "Array of modules.",
          "next": "Start of the next page."
        }
      },
      "getOwners()": {
        "returns": {
          "_0": "Array of Safe owners."
        }
      },
      "getStorageAt(uint256,uint256)": {
        "params": {
          "length": "- the number of words (32 bytes) of data to read",
          "offset": "- the offset in the current contract's storage in words to start reading from"
        },
        "returns": {
          "_0": "the bytes that were read."
        }
      },
      "getThreshold()": {
        "returns": {
          "_0": "Threshold number."
        }
      },
      "getTransactionHash(address,uint256,bytes,uint8,uint256,uint256,uint256,address,address,uint256)": {
        "params": {
          "_nonce": "Transaction nonce.",
          "baseGas": "Gas costs for data used to trigger the safe transaction.",
          "data": "Data payload.",
          "gasPrice": "Maximum gas price that should be used for this transaction.",
          "gasToken": "Token address (or 0 if ETH) that is used for the payment.",
          "operation": "Operation type.",
          "refundReceiver": "Address of receiver of gas payment (or 0 if tx.origin).",
          "safeTxGas": "Gas that should be used for the safe transaction.",
          "to": "Destination address.",
          "value": "Ether value."
        },
        "returns": {
          "_0": "Transaction hash."
        }
      },
      "isModuleEnabled(address)": {
        "returns": {
          "_0": "True if the module is enabled"
        }
      },
      "isOwner(address)": {
        "returns": {
          "_0": "Boolean if owner is an owner of the Safe."
        }
      },
      "removeOwner(address,address,uint256)": {
        "details": "This can only be done via a Safe transaction.",
        "params": {
          "_threshold": "New threshold.",
          "owner": "Owner address to be removed.",
          "prevOwner": "Owner that pointed to the owner to be removed in the linked list"
        }
      },
      "setFallbackHandler(address)": {
        "details": "Only fallback calls without value and with data will be forwarded.      This can only be done via a Safe transaction.      Cannot be set to the Safe itself.",
        "params": {
          "handler": "contract to handle fallback calls."
        }
      },
      "setGuard(address)": {
        "details": "Set a guard that checks transactions before execution      This can only be done via a Safe transaction.       IMPORTANT: Since a guard has full power to block Safe transaction execution,        a broken guard can cause a denial of service for the Safe. Make sure to carefully        audit the guard code and design recovery mechanisms.",
        "params": {
          "guard": "The address of the guard to be used or the 0 address to disable the guard"
        }
      },
      "setup(address[],uint256,address,bytes,address,address,uint256,address)": {
        "details": "This method can only be called once.      If a proxy was created without setting up, anyone can call setup and claim the proxy.",
        "params": {
          "_owners": "List of Safe owners.",
          "_threshold": "Number of required confirmations for a Safe transaction.",
          "data": "Data payload for optional delegate call.",
          "fallbackHandler": "Handler for fallback calls to this contract",
          "payment": "Value that should be paid",
          "paymentReceiver": "Address that should receive the payment (or 0 if tx.origin)",
          "paymentToken": "Token that should be used for the payment (0 is ETH)",
          "to": "Contract address for optional delegate call."
        }
      },
      "simulateAndRevert(address,bytes)": {
        "details": "Performs a delegatecall on a targetContract in the context of self. Internally reverts execution to avoid side effects (making it static). This method reverts with data equal to `abi.encode(bool(success), bytes(response))`. Specifically, the `returndata` after a call to this method will be: `success:bool || response.length:uint256 || response:bytes`.",
        "params": {
          "calldataPayload": "Calldata that should be sent to the target contract (encoded method name and arguments).",
          "targetContract": "Address of the contract containing the code to execute."
        }
      },
      "swapOwner(address,address,address)": {
        "details": "This can only be done via a Safe transaction.",
        "params": {
          "newOwner": "New owner address.",
          "oldOwner": "Owner address to be replaced.",
          "prevOwner": "Owner that pointed to the owner to be replaced in the linked list"
        }
      }
    },
    "stateVariables": {
      "VERSION": {
        "return": "Version string."
      },
      "approvedHashes": {
        "params": {
          "messageHash": "Hash of message that should be checked.",
          "owner": "Owner address that should be checked."
        },
        "return": "Number denoting if an owner approved the hash."
      },
      "nonce": {
        "return": "Nonce."
      },
      "signedMessages": {
        "params": {
          "messageHash": "Hash of message that should be checked."
        },
        "return": "Number denoting if an owner signed the hash."
      }
    },
    "title": "Safe - A multisignature wallet with support for confirmations using signed messages based on EIP-712.",
    "version": 1
  },
  "userdoc": {
    "kind": "user",
    "methods": {
      "VERSION()": {
        "notice": "Returns the version of the Safe contract."
      },
      "addOwnerWithThreshold(address,uint256)": {
        "notice": "Adds the owner `owner` to the Safe and updates the threshold to `_threshold`."
      },
      "approveHash(bytes32)": {
        "notice": "Marks hash `hashToApprove` as approved."
      },
      "approvedHashes(address,bytes32)": {
        "notice": "Returns a uint if the messageHash is approved by the owner."
      },
      "changeThreshold(uint256)": {
        "notice": "Changes the threshold of the Safe to `_threshold`."
      },
      "checkNSignatures(address,bytes32,bytes,uint256)": {
        "notice": "Checks whether the signature provided is valid for the provided data and hash. Reverts otherwise."
      },
      "checkSignatures(bytes32,bytes)": {
        "notice": "Checks whether the signature provided is valid for the provided data and hash. Reverts otherwise."
      },
      "checkSignatures(bytes32,bytes,bytes)": {
        "notice": "Checks whether the signature provided is valid for the provided data and hash. Reverts otherwise."
      },
      "disableModule(address,address)": {
        "notice": "Disables the module `module` for the Safe."
      },
      "enableModule(address)": {
        "notice": "Enables the module `module` for the Safe."
      },
      "execTransaction(address,uint256,bytes,uint8,uint256,uint256,uint256,address,address,bytes)": {
        "notice": "Executes a `operation` {0: Call, 1: DelegateCall}} transaction to `to` with `value` (Native Currency)          and pays `gasPrice` * `gasLimit` in `gasToken` token to `refundReceiver`."
      },
      "execTransactionFromModule(address,uint256,bytes,uint8)": {
        "notice": "Execute `operation` (0: Call, 1: DelegateCall) to `to` with `value` (Native Token)"
      },
      "execTransactionFromModuleReturnData(address,uint256,bytes,uint8)": {
        "notice": "Execute `operation` (0: Call, 1: DelegateCall) to `to` with `value` (Native Token) and return data"
      },
      "getModulesPaginated(address,uint256)": {
        "notice": "Returns an array of modules.         If all entries fit into a single page, the next pointer will be 0x1.         If another page is present, next will be the last element of the returned array."
      },
      "getOwners()": {
        "notice": "Returns a list of Safe owners."
      },
      "getStorageAt(uint256,uint256)": {
        "notice": "Reads `length` bytes of storage in the currents contract"
      },
      "getThreshold()": {
        "notice": "Returns the number of required confirmations for a Safe transaction aka the threshold."
      },
      "getTransactionHash(address,uint256,bytes,uint8,uint256,uint256,uint256,address,address,uint256)": {
        "notice": "Returns transaction hash to be signed by owners."
      },
      "isModuleEnabled(address)": {
        "notice": "Returns if an module is enabled"
      },
      "isOwner(address)": {
        "notice": "Returns if `owner` is an owner of the Safe."
      },
      "nonce()": {
        "notice": "Returns the nonce of the Safe contract."
      },
      "removeOwner(address,address,uint256)": {
        "notice": "Removes the owner `owner` from the Safe and updates the threshold to `_threshold`."
      },
      "setFallbackHandler(address)": {
        "notice": "Set Fallback Handler to `handler` for the Safe."
      },
      "setGuard(address)": {
        "notice": "Set Transaction Guard `guard` for the Safe. Make sure you trust the guard."
      },
      "setup(address[],uint256,address,bytes,address,address,uint256,address)": {
        "notice": "Sets an initial storage of the Safe contract."
      },
      "signedMessages(bytes32)": {
        "notice": "Returns a uint if the messageHash is signed by the owner."
      },
      "swapOwner(address,address,address)": {
        "notice": "Replaces the owner `oldOwner` in the Safe with `newOwner`."
      }
    },
    "version": 1
  },
  "storageLayout": {
    "storage": [
      {
        "astId": 5256,
        "contract": "contracts/Safe.sol:Safe",
        "label": "singleton",
        "offset": 0,
        "slot": "0",
        "type": "t_address"
      },
      {
        "astId": 4117,
        "contract": "contracts/Safe.sol:Safe",
        "label": "modules",
        "offset": 0,
        "slot": "1",
        "type": "t_mapping(t_address,t_address)"
      },
      {
        "astId": 4648,
        "contract": "contracts/Safe.sol:Safe",
        "label": "owners",
        "offset": 0,
        "slot": "2",
        "type": "t_mapping(t_address,t_address)"
      },
      {
        "astId": 4650,
        "contract": "contracts/Safe.sol:Safe",
        "label": "ownerCount",
        "offset": 0,
        "slot": "3",
        "type": "t_uint256"
      },
      {
        "astId": 4652,
        "contract": "contracts/Safe.sol:Safe",
        "label": "threshold",
        "offset": 0,
        "slot": "4",
        "type": "t_uint256"
      },
      {
        "astId": 2760,
        "contract": "contracts/Safe.sol:Safe",
        "label": "nonce",
        "offset": 0,
        "slot": "5",
        "type": "t_uint256"
      },
      {
        "astId": 2762,
        "contract": "contracts/Safe.sol:Safe",
        "label": "_deprecatedDomainSeparator",
        "offset": 0,
        "slot": "6",
        "type": "t_bytes32"
      },
      {
        "astId": 2767,
        "contract": "contracts/Safe.sol:Safe",
        "label": "signedMessages",
        "offset": 0,
        "slot": "7",
        "type": "t_mapping(t_bytes32,t_uint256)"
      },
      {
        "astId": 2774,
        "contract": "contracts/Safe.sol:Safe",
        "label": "approvedHashes",
        "offset": 0,
        "slot": "8",
        "type": "t_mapping(t_address,t_mapping(t_bytes32,t_uint256))"
      }
    ],
    "types": {
      "t_address": {
        "encoding": "inplace",
        "label": "address",
        "numberOfBytes": "20"
      },
      "t_bytes32": {
        "encoding": "inplace",
        "label": "bytes32",
        "numberOfBytes": "32"
      },
      "t_mapping(t_address,t_address)": {
        "encoding": "mapping",
        "key": "t_address",
        "label": "mapping(address => address)",
        "numberOfBytes": "32",
        "value": "t_address"
      },
      "t_mapping(t_address,t_mapping(t_bytes32,t_uint256))": {
        "encoding": "mapping",
        "key": "t_address",
        "label": "mapping(address => mapping(bytes32 => uint256))",
        "numberOfBytes": "32",
        "value": "t_mapping(t_bytes32,t_uint256)"
      },
      "t_mapping(t_bytes32,t_uint256)": {
        "encoding": "mapping",
        "key": "t_bytes32",
        "label": "mapping(bytes32 => uint256)",
        "numberOfBytes": "32",
        "value": "t_uint256"
      },
      "t_uint256": {
        "encoding": "inplace",
        "label": "uint256",
        "numberOfBytes": "32"
      }
    }
  }
}